:020000040800F2
:1000000018080020D9000008E1000008E3000008FB
:1000100000000000000000000000000000000000E0
:10002000000000000000000000000000E5000008E3
:100030000000000000000000E7000008E9000008E0
:10004000EB00000800000000EB000008EB000008D7
:10005000EB000008EB000008EB000008EB000008D4
:1000600000000000EB000008EB000008EB000008B7
:10007000EB000008EB000008EB00000800000000A7
:10008000EB0000080000000000000000EB0000088A
:1000900000000000EB000008EB000008EB00000887
:1000A000EB000008EB000008EB000008C1010008AD
:1000B000EB0000080000000000000000000000004D
:1000C0000448854600F06AF800F058F800480047F8
:1000D0002108000818080020044880470448004709
:1000E000FEE7FEE7FEE7FEE7FEE7FEE71908000889
:1000F000C100000830B50B46014600202022012433
:1001000009E00D46D5409D4205D31D469540491B4B
:100110002546954040191546521E002DF1DC30BD94
:1001200003460B439B0703D009E008C9121F08C010
:10013000042AFAD203E00B780370401C491C521EBB
:10014000F9D27047D2B201E00270401C491EFBD2C6
:1001500070470022F6E710B513460A4604461946D2
:10016000FFF7F0FF204610BD0321001D401E03785D
:1001700012021A43491EF9D51046704770B5054C56
:10018000054D03E0206800198047241DAC42F9D1D9
:1001900070BD0000400F0008480F0008064C012504
:1001A000064E05E0E36807CC2B430C3C984710341F
:1001B000B442F7D3FFF788FF200F0008400F000874
:1001C0000149486809680847000000200A4888B0CB
:1001D00000880A4A8002059000200190029001A840
:1001E000039008200490009005A906A8039B00F046
:1001F00070FC00F09FFA0000E075FF1F001000087F
:100200000001000070470000CD0100081CB5044645
:10021000001D00F049FE002809D06168A0688847E9
:10022000684600F04DFC0146201D00F04DFC1CBD51
:10023000F0B58DB004460D460AA800F041FC014619
:10024000201D00F041FC69780220F3297ED1287A34
:100250002F46844E0C37012808D0002805D0696845
:100260000978022922D0022871D0A3E069680978B0
:100270000129F4D121687B4A032368460968083ABA
:100280005B0300F0FBF8684600F062FA00287DD0BE
:100290002068002546602068FF220573206880687A
:1002A000036841681846FFF74DFFD8E020684168B1
:1002B0000029ECD08168007B097909AA081A089006
:1002C000297A089B491E08A80991994200DA10462C
:1002D0000678206869688268007B1268491C1018DB
:1002E0003246FFF71DFF2068017B8919CAB20273ED
:1002F000002069460871206881684868904250D1A2
:1003000002A800F051FB039800902068029B06C8E9
:1003100005A800F0DEFB6946087D08712068FF2211
:1003200041680831416021680020087320688068B6
:10033000036841681846FFF705FF01A800F008FAB6
:1003400000282ED0287A801B401E01E033E02FE0E9
:100350004207520F811A069207916868039180192B
:10036000401C029000912068029B06C804A800F07F
:10037000B0FB6946087C08712068079942685118EB
:100380004160686807998019411800E05DE02068C5
:10039000491C8068069A0068FFF7C2FE2068069A2A
:1003A000027301A800F0DBF900284ED1387157E044
:1003B000032902D004200DB0F0BD20684168002957
:1003C00043D000216A461171017B002913D0816856
:1003D00006A800F0E9FA079800902068069B06C876
:1003E00003A800F076FB6946087B08712068027B51
:1003F00041688918416021680020496803E032782B
:100400001018C0B2761CB142F9D8C043C6B201A8D8
:1004100000F0A5F9002818D168684078B04214D1DE
:100420001148089008200990009020680D4A016842
:10043000083A02A8089B00F04CFB6946087A08714C
:1004400001A800F08CF9002801D00620B3E70025B0
:1004500004A800F0ADFA0598A060049860603D71B2
:100460000020A8E708100008B20E00080120024989
:10047000C00688607047000000ED00E0FFB581B065
:100480000126F6021F46144600960299019800F0D4
:1004900075F9019800F05CF900284CD0029800F042
:1004A000A9F8029800F08AF9244D28697F21C90033
:1004B00008432861E71918E0686902210843686168
:1004C0001F20C0062018C003800E6969C000FF22EB
:1004D000F9329143084368616869012109040843BE
:1004E0006861029800F06AF9A419A742E4D8696922
:1004F0000220814369612868800511D5286801219F
:10050000490288432860286830432860BFF34F8F32
:10051000BFF36F8F2868B0432860286808432860BD
:10052000029800F05BF86846019C029900F01CF903
:1005300068460078207005B0F0BD00000020024041
:100540000FB4F8B50A9F082006AC009007CC1E46F1
:100550003B4600F013F9069800F0FAF8002837D06F
:10056000079800F047F8079800F028F91A48016941
:100570007F22D2001143016141690122114341618F
:10058000002413E03019FFF7EFFD08990D192860DA
:10059000201D3018FFF7E8FD6860079800F00EF99D
:1005A0000D4801694908490001610834A742E9D8AA
:1005B00009484169490849004161079800F00EF86F
:1005C0006846069C079900F0CFF8684600782070CE
:1005D000F8BC08BC04B018470020024010B500F079
:1005E000EDF80348416982041143416110BD0000E8
:1005F0000020024004484169002903DA0349816070
:1006000003498160704700000020024023016745D4
:10061000AB89EFCD70B5294D0446E8698006C00F5F
:1006200015D028688006C00F11D06068002809D056
:10063000686A6268C1B2A0689047E8698006C00F26
:10064000F6D104E0686AE8698006C00FFAD1E8696B
:1006500040210006C00F002815D028680006C00FF2
:1006600011D06069A269904206D260690078A862E0
:100670006069401C606106E0286880229043286021
:10068000286808432860E8694006C00F13D028682E
:100690004006C00F0FD029622868884328600020D8
:1006A000A061606120460C3000F0FEFB002802D003
:1006B000E168206988470820286270BD0038014041
:1006C0007CB500254560856001600C3000F0F8F9CC
:1006D00004460C3C8560C5602146684600F086F9FA
:1006E00010480199416000990F4A0160106801218A
:1006F000490708431060106804210843106010681F
:100700000821084310600220D0622320D0601068C6
:10071000012108431060C8060449086004490860C4
:1007200020467CBD000000200038014080E200E04F
:1007300000E100E072B6BFF34F8F04490248C86081
:10074000BFF34F8F00BFFDE70400FA0500ED00E0A6
:100750000078002801D00020704701207047007801
:10076000002800D001207047034909698905490E16
:1007700000D00521017070470020024070B504468A
:1007800008681D46049EA84213D30121C9068A4267
:100790000FD3401B401890420BD331461046FFF751
:1007A000A9FC002905D131462846FFF7A3FC002902
:1007B00002D00520207070BD0020FBE70120034916
:1007C00000040A680242FCD1704700001020024079
:1007D00002E008C8121F08C1002AFAD170470020A1
:1007E00001E001C1121F002AFBD1704703480449F0
:1007F0001B2206C003491C2206C0704708000020C7
:10080000003801400044004002480021016041607E
:10081000704700000000002010B5FFF727FE10BD54
:10082000FFB05A48B1B00088594A80021F90AAA868
:100830000646119008230120ACAF00901FA9154671
:100840001C4612933846FFF799FF3846FFF780FFA2
:10085000002804D0294630462246FFF761FCACA8A8
:10086000FFF776FF002815D04A4A0020AAA90B5CA2
:10087000145CA34203D1401CC0B20828F7D3082857
:1008800008D1454A111F086880F3088843488160F1
:100890001068804742494A6B012002434A6340493D
:1008A00040310A6802430A603E48026818231A432E
:1008B000026005200007426A0F231B029A4342622E
:1008C000426A8B151A434262026803231B059A434E
:1008D0000260026801235B051A430260426AF0234A
:1008E0009A434262426A10231A4342620268032317
:1008F0009B049A43026002680123DB041A430260EE
:1009000008685A1110430860E1225202AFA9A3A857
:10091000FFF7D6FE0024ADA81A94159008211FA851
:100920001691199015A81B901C9420AAA3A901A8A0
:1009300000F01EFA01A80A9008A804730AA90C94F2
:1009400013A80D9400F07CF8149804901398039069
:1009500019A90FA80E9100F0B3F80EA917A800F07E
:1009600085F818980D9017980C900EA91DA800F006
:1009700027F81D9913910A981E99149141611399B2
:10098000016101A800F04CF9FBE70000E075FF1FD2
:1009900000100008B20E00080411000800ED00E08D
:1009A000001002400000014006C906C07047000068
:1009B0000149002206C07047BD090008FFF7BAFED2
:1009C000014A026041607047CD09000806490A46A5
:1009D000096D403249100818D168127CD20702D044
:1009E0000268511809680847BC0E0008014A0260F5
:1009F00041607047F909000805498A6852101018CB
:100A00000A7A4968D20702D0026851180968084773
:100A1000BC0E0008014A026041607047210A0008CC
:100A200006490A46096A1C324910081811681279E9
:100A3000D20702D00268511809680847BC0E0008A6
:100A4000014A0260416070474D0A0008064A134699
:100A5000926B2033521010185A691B7EDB0702D0AC
:100A600003689A1812681047BC0E0008014A026019
:100A700041607047790A0008064A1346926C403379
:100A8000521010185A681B7ADB0702D003689A18B4
:100A900012681047BC0E0008014A026041607047AE
:100AA000A50A0008054A93695B101818137E52695D
:100AB000DB0702D003689A1812681047BC0E0008C2
:100AC00000210160416070474A6842600968016026
:100AD000704738B5049C0094FFF732FD38BD000024
:100AE000024801682022114301607047003801402C
:100AF00030B58369024601242032002B05D0002541
:100B0000012B0CD0022B1BD11BE013787E2B18D1AC
:100B10007E2916D043681970C461846111E07E2972
:100B20000AD0C369084CA3420AD2C4694368195564
:100B3000C3695B1CC36104E002238361547000E05D
:100B40008561117030BD00000A0200007E2807D0C8
:100B50007D2805D0112803D0132801D0002070472C
:100B60000120704710B500231A4603E0841824784A
:100B7000E318521C9142F9D8D843C0B210BD0121EC
:100B80002030817070470000FFB5486883B023496A
:100B90000191009006990598FFF7E4FF07467E2132
:100BA000009801240170002515E005984019067889
:100BB0003046FFF7CBFF002807D0202046400098A2
:100BC0007D210019641C0170A4B200980019641CF6
:100BD0000670A4B26D1C0698A842E6D83846FFF706
:100BE000B5FF002807D02020474000987D2100193C
:100BF000641C0170A4B200987E2200190770641C66
:100C00000099A0B209180A70401C80B201900099A6
:100C10000398019A06C007B0F0BD00000A02000068
:100C2000F0B5044600208FB0264620360790707835
:100C300000287DD04D4801682023994301600020A1
:100C4000707001200246079000200546014614E01E
:100C5000636800289C465B5C15D00020312B1AD0BD
:100C6000332B18D05D2B16D05E2B14D00022674694
:100C70007B556D1C002A03D0491CE3698B42E7D8E1
:100C800000280DD10AE07D2B03D000200028EED0F3
:100C9000F0E70120FAE720277B40E8E7002A00D1AF
:100CA0000025FF21681E0731884246D260686D1E0C
:100CB000294605950490FFF755FF01466068425D9F
:100CC00091423AD1FF3008300C90059AFF210498E8
:100CD000043100900D910C98019203910290A2684A
:100CE000002A28D06946E0689047002823D008A849
:100CF00002A9FFF759FE21460AA8099B089AFFF7A7
:100D000043FF206800236D460B9A0A992B764569AC
:100D1000AB4207D141618918816114480168802282
:100D20001143016006A8FFF713FD002803D000E07F
:100D300003E00020079000203070B07800280BD02E
:100D40000020B0702046103000F0AEF8002806D029
:100D500021696069884702E00798002804D00020D4
:100D6000A0612068FFF7BCFE0FB0F0BD0038014065
:100D700030B587B006C00025056045600830FFF734
:100D80009FFE0446103C8560C560103005704570BC
:100D90008570214604A82568FFF77EFE0498009020
:100DA00005980190A86000986860214602A825680F
:100DB000FFF730FE02980090039801902861009898
:100DC000E8602068FFF78CFE204607B030BDF0B524
:100DD00089B00C4600216A4603910646117405A8A5
:100DE0000591079011766068012702AB032801D3B3
:100DF000012500E00025002D21D02268C01E957835
:100E0000854201D1012500E00025002D17D0107882
:100E10006A461072206840785072226890780028E4
:100E200005D0D21C009269460871052204E068468C
:100E30000091017105226946181DFFF771F9002D17
:100E40002ED0B06800282BD06846007A31798142D4
:100E500026D1A168207B091D00916B46001F1871E7
:100E6000052269460798FFF75BF9B26802A9F068A6
:100E70009047410602D000216A4611766A46A16871
:100E8000127A0A706A46A168527A4A70A1686A4664
:100E90008870A068117EC170107E001DE06000E0C7
:100EA0000027384609B0F0BD0068002800D00120B6
:100EB00070473C424C2E5349473E00000000000062
:100EC00015060008000000001506000800000000DC
:100ED000F10A0008000000007F0B0008000000007D
:100EE000F10A0008000000007F0B0008000000006D
:100EF000CF0D000800000000CF0D0008000000002A
:100F000031020008000000000D020008000000008F
:100F100031020008000000000D020008000000007F
:100F2000480F00080000002018000000D00700084B
:100F3000600F00081800002000080000DE0700080D
:100F4000C9F8FFFFA9F8FFFF000000000000000043
:100F50000000000000000000000000000000000091
:101000003C424C2E5349473E0000140002020000AF
:10110000A01A0020A5120008AD120008AF120008B6
:1011100000000000000000000000000000000000CF
:10112000000000000000000000000000B1120008F4
:101130000000000000000000B3120008B91A000807
:10114000B712000800000000B7120008B71200082C
:10115000B7120008A5190008D1190008FD190008E8
:10116000000000006D1900087919000841190008F5
:10117000B7120008B7120008B712000800000000FC
:10118000F51A00080000000000000000C51A000861
:1011900000000000D51A0008E51A0008A11A00088E
:1011A000AD1A0008B7120008B7120008011B0008AA
:1011B0000D1B0008000000000000000000000000FF
:1011C00000F002F800F043F80CA030C808382418EA
:1011D0002D18A246671EAB4654465D46AC4201D16F
:1011E00000F035F87E460F3E0FCCB646012633425E
:1011F00000D0FB1AA246AB4633431847985A00006A
:10120000B85A0000103A02D378C878C1FAD8520709
:1012100001D330C830C101D504680C6070470000AC
:101220000023002400250026103A01D378C1FBD802
:10123000520700D330C100D50B6070471FB500F0D6
:10124000ABF91FBD10B50020C046C04610BD00F070
:1012500047FB1146FFF7F2FF03F0A8F900F05FFB30
:1012600003B4FFF7EFFF03BC00F062FB70B5054667
:101270000C46164602E00FCC0FC5103E102EFAD2D7
:10128000082E02D303CC03C5083E042E07D301CC9D
:1012900001C5361F03E021782970641C6D1C761E81
:1012A000F9D270BD0748804707480047FEE7FEE7D0
:1012B000FEE7FEE7FEE7FEE704480549034A054B63
:1012C00070470000A5450008C1110008A0020020D9
:1012D000A01A0020A00200204343514330B55C18FF
:1012E000010C130C0D4692B25D4380B251432C1990
:1012F000054655430A0C09044D1962415843010C37
:1013000000044019514130BD034610B50B439B0703
:101310000FD1042A0DD308C810C9121FA342F8D058
:1013200018BA21BA884201D9012010BD0020C0435B
:1013300010BD002A03D0D30703D0521C07E00020C1
:1013400010BD03780C78401C491C1B1B07D1037887
:101350000C78401C491C1B1B01D1921EF1D1184670
:1013600010BDF8B5042A2CD3830712D00B78491C82
:101370000370401C521E83070BD00B78491C03706E
:10138000401C521E830704D00B78491C0370401C7C
:10139000521E8B079B0F05D0C91ADF002023DE1BCE
:1013A00008C90AE0FFF762FFF8BD1D4608C9FD4005
:1013B0001C46B4402C4310C0121F042AF5D2F30877
:1013C000C91A521EF0D40B78491C0370401C521EDF
:1013D000EAD40B78491C0370401C012AE4D4097834
:1013E0000170F8BDD2B210B513029A1813049A18FE
:1013F00000F00EF810BD01E004C0091F0429FBD263
:101400008B0701D50280801CC90700D0027070478D
:1014100000290BD0C30702D00270401C491E0229CC
:1014200004D3830702D50280801C891EE3E70022D3
:10143000EEE70022DFE7002203098B422CD3030AE8
:101440008B4211D300239C464EE003460B433CD411
:10145000002243088B4231D303098B421CD3030A79
:101460008B4201D394463FE0C3098B4201D3CB01A9
:10147000C01A524183098B4201D38B01C01A5241D9
:1014800043098B4201D34B01C01A524103098B42DD
:1014900001D30B01C01A5241C3088B4201D3CB00C8
:1014A000C01A524183088B4201D38B00C01A5241AB
:1014B00043088B4201D34B00C01A5241411A00D25B
:1014C00001465241104670475DE0CA0F00D04942C4
:1014D000031000D34042534000229C4603098B4234
:1014E0002DD3030A8B4212D3FC22890112BA030ABC
:1014F0008B420CD3890192118B4208D3890192113E
:101500008B4204D389013AD0921100E08909C309C2
:101510008B4201D3CB01C01A524183098B4201D3C4
:101520008B01C01A524143098B4201D34B01C01AAF
:10153000524103098B4201D30B01C01A5241C30827
:101540008B4201D3CB00C01A524183088B4201D396
:101550008B00C01A5241D9D243088B4201D34B00B1
:10156000C01A5241411A00D20146634652415B10F3
:10157000104601D34042002B00D5494270476346D4
:101580005B1000D3404201B50020C046C04602BDFA
:10159000704770477047000070B5064C7C44064D9C
:1015A0007D4403E0206800198047241DAC42F9D136
:1015B00070BD00001457000038570000F0B5FF253B
:1015C0002D04C609C209FF2704462E400137CB0966
:1015D0003E4348402A402B400746002A6BD0002B50
:1015E00069D0AA4267D0AB4265D0002800DA324603
:1015F0000125ED0529432C4309022002090AD21ACC
:101600004B0C7F24E31A434C000A7C44E35C7D24AA
:101610002404121914145B00A218884201D3521C2E
:1016200000E0400049420C465C4324115C43DB016E
:101630006415E318040A5C43C502200D0C464443BC
:101640006419250A5D432303EC0C0D466543000332
:101650000019EB184C42A34201D35B18401CD4057F
:101660002018002B07D05B00C91804D3401C0029A8
:1016700001D1400840003F2189048A4209D3002A51
:1016800008DC1106090F04D0032149074018C00FD8
:10169000C007F0BD01224100120689187F225206C0
:1016A0009142F6D205214907C84201D59010F0BDFC
:1016B000FF20C005F0BD002F00DA32461648AA42CE
:1016C00007D2AB4205D21902090E17D0F80FC00796
:1016D000F0BDFF2563002D06AB42F9D84900A942B1
:1016E000F6D8AB4201D1A942F2D0A94201D10021E2
:1016F00001E061004908D0050843F0BD1102090E60
:10170000FBD0FF200243D005F0BD0A46014610463B
:1017100054E70000165600000000C07F10B50146D7
:101720009E240002CA15A307002A02D01843002AEB
:1017300004DBA21A002A0CDDD04010BD1206120EE6
:1017400001D140004008A21A03D4D04040420028F2
:10175000F3DDFF2248001206904201D9002010BD9F
:10176000C817C043584010BD0102C21504D0012360
:10177000DB071943002A0ADB9E239A1A02D4084683
:10178000D0407047FF2241001206914201D900204B
:101790007047C017C04370471F22030C02D10F22AD
:1017A00000041CD0030E01D10002083A030F01D13E
:1017B0000001121F830F01D18000921E002801DB5F
:1017C0004000521ED20551180212511819229040A1
:1017D00004D3491C002801D1490849000846704734
:1017E000C10FC90700D04042012292071143D3E73D
:1017F00001218907D0E710B500F06AF8006810BD34
:1018000010B5044600F064F8046010BDC10D10B5B9
:101810000906090E2ED0FF2931D07E292DD319D0EB
:10182000962916D2024675398A4005D00024024610
:101830008A4003D3012302E00124F8E700230222B7
:10184000CA41511E8843002B03D08018002C00D0C1
:10185000904310BD0121420201D1012200E000228B
:10186000C00FC0070029F4D0002AF2D17F21C9059A
:10187000084310BDC00FC00710BD0021EFE74102B3
:10188000FAD0014810BD00000000C07F10B5FF2253
:10189000C30D134009D05A4007D0914205DA5C428B
:1018A000A14202DDC905081810BDC40FE407002BD2
:1018B00006D0002A06D0002902DBFF20C005044321
:1018C000204610BD4102FCD0004810BD0000C07F82
:1018D000004870473C020020004870473C0200204E
:1018E0007546FFF7F9FFAE46050069465346C00846
:1018F000C000854618B020B5FFF7DEFC60BC0027AD
:101900004908B6460026C0C5C0C5C0C5C0C5C0C5CB
:10191000C0C5C0C5C0C5403D49008D46704710B523
:101920000446C046C0462046FFF79AFC10BD0000A2
:1019300001491820ABBEFEE72600020070470000F8
:1019400010B5084C20680004000F02D0064804F0CF
:1019500090FF20680003000F03D00348083004F014
:1019600088FF10BD00000240DC00002001494868EB
:1019700009680847C400002010B5084C206800061C
:10198000000F02D0064804F074FF20680005000F25
:1019900003D00348083004F06CFF10BD0000024083
:1019A000CC00002010B50848C46800690443E00773
:1019B00003D00649486809688847A00703D503484B
:1019C000083004F056FF10BD001802403C01002012
:1019D00010B50848C46800690443600702D506488A
:1019E00004F047FF200703D50348083004F041FF07
:1019F00010BD0000001802404C01002010B5264820
:101A0000C46800690443E00602D5244804F031FFAD
:101A1000A00603D52148083004F02BFF600603D54B
:101A20001E48103004F025FF200603D51B4818304F
:101A300004F01FFFE00503D51848203004F019FF1B
:101A4000A00503D51548283004F013FF600503D521
:101A50001248303004F00DFF200503D50F48383010
:101A600004F007FFE00403D50C48403004F001FF08
:101A7000A00403D50948483004F0FBFE600403D5F8
:101A80000648503004F0F5FE200403D503485830D2
:101A900004F0EFFE10BD0000001802405C010020C1
:101AA0000149486809680847340000200149C868AE
:101AB00089680847340000200149486809680847D8
:101AC0001C00002010B5024804F0D3FE10BD000039
:101AD0001402002010B5024804F0CBFE10BD000037
:101AE0001C02002010B5024804F0C3FE10BD000027
:101AF0002402002001494868096808470C020020B8
:101B000001494868096808472C0200200149C86853
:101B1000896808472C020020F8B504460D4660305D
:101B2000017C002904D16567A5670121E56701747F
:101B30000126A06E3604301A616F02F0A3FC07463E
:101B40002946A06E02F09EFC38186067E06EA16F17
:101B5000301A02F097FC07462946E06E02F092FC2C
:101B60003818A067616F091A00D549420E4802F083
:101B700089FC02F059FC01460F20400502F082FC6E
:101B80000521890440188119304602F017FC0746E8
:101B9000F01BE16F02F076FC06462946384602F05B
:101BA00071FC3018E067F8BDCDCCFFFF03498166BA
:101BB0008321C1660021603001747047310C000040
:101BC00010B5002304461A46194600F027F90020F4
:101BD000234602460146503307C32046A368626885
:101BE000E16800F01BF9A26A606AE16A8018E165A9
:101BF0002066206860662046FFF7D8FF2046FFF782
:101C0000D5FF10BDF3B504463D49406C01252D04B8
:101C100083B0884201DA40196064A06C884201DA1E
:101C20004019A064384F676536482565A065204691
:101C3000616C00F075F80190216B606B401A01999E
:101C400002F020FC216B46182046A16C00F068F8D9
:101C500001465520400402F015FC55218904401826
:101C60002A4925656165A0652046049900F058F869
:101C70003146009002F006FCE06367652448256564
:101C8000A0652046616C00F04BF8226BA16B8A1AAC
:101C90000199411A104602F0F5FB216B46182046C7
:101CA000A16C00F03DF801465520400402F0EAFB2B
:101CB000552189044018154925656165A0652046B0
:101CC000049900F02DF8314602F0DCFB2064009806
:101CD0001049281A02F0D6FB0F4941180F4802F0AC
:101CE000D1FBE16C40180021E064002800DAE164D7
:101CF000E269E06C904200DDA16405B0F0BD000037
:101D00000000FE7F00008C0A8F0200000A1700000E
:101D100000006414CD4C010033B3FFFF4404000005
:101D200010B50446806D091A606D02F0ABFB1921F5
:101D30004904C84201DA206D10BD192149048842C6
:101D400001DD002010BD02F06FFB012109044118E4
:101D5000206D02F033FB10BDF8B504462030057845
:101D60000023002D1BD01925606AAD04A84201DABA
:101D7000E84203DCA56A63622818A062A06A0D1A13
:101D800011462046FFF73EFF606A0121281A8905A7
:101D900002F014FB0500E06A06D5401B05E00122B5
:101DA00002706362A162F8BD401901262D2136043C
:101DB0004905884200DDB60001203146800502F069
:101DC00061FB0146E06A02F0F9FA0146E06A02F0BE
:101DD00059FB07462946206C02F054FB314602F0BD
:101DE000EDFA294602F04EFB381802F071FB074667
:101DF0000120216C8005411A304602F043FB02F0BD
:101E000067FB394602F03EFBE0622946E06B02F0D8
:101E100039FB616A40186062F8BD000070B5044685
:101E2000C3610025203005706562A562E16211463C
:101E30001231074802F0C2FA206306486063E56386
:101E400025646564A5640448E564A06370BD000072
:101E50008D040000310C03008D060000F8B5064625
:101E6000D5200D460004091A1C4802F00BFB04465D
:101E700019207D274004BF04C44201DA3846F8BD6A
:101E800019204004844201DD0020F8BD2800144DD3
:101E900012D405200004716E02F0F4FA381AA90079
:101EA00002F08CFA0646204602F0BEFA4119F019FB
:101EB00002F084FA801BF8BD204602F0B5FA411901
:101EC000384602F07BFA044619218904706E02F04C
:101ED00075FA214602F0D6FAF8BD000056FEFFFF63
:101EE0000000010010B5846A436A1B190B60C06AC8
:101EF000106010BD10B51921890401600321890407
:101F000041602D218904816019214904C1600021AB
:101F1000016141618161FFF753FE10BD70B5164646
:101F2000044600692D2201251204ED03904203DCD2
:101F300069004018206138E01E4A481E904201D3D3
:101F400060690AE01C48814202DB1C48814200DDD6
:101F500001461B480818000460613722E16D9204B5
:101F60008918226E4942801A02F028FA7321490426
:101F700002F088FA0146A0612046FFF76FFF014694
:101F8000A0612046FFF7C8FDA061A84200DAA56164
:101F90006169002909DD2046A269FFF7DDFEA26A1A
:101FA000606AE16A8018E1652066A0694019001442
:101FB000306070BDE7FD0000214E00001FCE000024
:101FC000E0B1FFFF044B4364C2620123416220225F
:101FD00013544161704700000000302A10B5090415
:101FE000029C016011044160190481602104C160F8
:101FF000FFF7E6FD10BD0000002805DBC106C90E95
:1020000001208840014908607047000000E100E0BD
:102010008307FF22DB0E9A408907090E99400028AA
:1020200008DB830809489B001818036893430B4397
:10203000036070470007000F0838830804489B00BE
:102040001818C36993430B43C361704700E400E071
:1020500000ED00E0002805DBC106C90E0120884024
:10206000014908607047000080E200E00CB5054AB5
:10207000009206226B461A71019B009A00F02EF81E
:102080000CBD0000E06A00080CB5054A0092092268
:102090006B461A71019B009A00F020F80CBD0000FD
:1020A000E66A00080807000F090950701170092935
:1020B00001D9373100E030311170092801D93730AA
:1020C00000E03030507070470CB518226B4600911C
:1020D0001A71019B009A00F001F80CBD0FB56A4619
:1020E0000021127B06E0029B5B181B78002B07D0B7
:1020F000491CC9B28A42F6D80299039A06C00FBD9C
:10210000029A026001710FBD007E7047F8B50D465E
:1021100017461E4604461821FFF789F907982076CE
:1021200000956846C0782070684680786070684680
:102130004078A07068460078E070032568000219B6
:10214000615D2046FFF7AEFF6D1EF7D5002508E064
:10215000781901786800021920460832FFF7A2FFBB
:102160006D1CAE42F4D86946069808804878207500
:1021700009782246617516322046FFF793FF224602
:10218000217D14322046FFF78DFF2046F8BD4069BF
:10219000002800D00120704710B58068024AC16A4B
:1021A00001F02CF910BD00000000C84210B5846891
:1021B000E069FFF715FB0146024A204601F01EF9CF
:1021C00010BD00000000204110B58068024A816AFD
:1021D00001F014F910BD000000004843FEB50446AC
:1021E000C0680178002912D00026067060690125B8
:1021F00000280DD0012811D0022822D06661206865
:10220000006804F087FA6068006804F063F9FEBDB6
:10221000207E0028F3D065612676F0E7607E0028F6
:102220004CD120690068E169401A7D21C900FFF79F
:1022300002F90029E3D1206800680571022060617D
:10224000DDE720680068817B00292AD08673416918
:10225000006901910090607E002805D06661606889
:102260000068457266761CE00198002805D1694631
:102270004A88A0680988C1820283A0686768008BC9
:10228000FFF7B6FA1C4904F05FFB1C4904F0C0FBE1
:1022900002F01CFD0146A068C28A38688184C284AD
:1022A000057260680068817C0029A8D08674816905
:1022B000406901910090607E002805D066616068E9
:1022C0000068457266769AE70198002803D168464F
:1022D000A16800884883A6683046303001F0FCF8D9
:1022E0003146708B1C3102F0D1FC31461031081F91
:1022F00002F0BAFC656182E70000A03F9AC1754513
:1023000010B5084C012020706068401C60607D2181
:10231000C9006068FFF78FF8002902D1A068401C4F
:10232000A06010BD000000200EC00C3870470000F7
:102330007FB50A88634D0B46541B0C33AA4276D0F6
:1023400019DC614D541BAA4252D005DC102A45D03D
:10235000FF3A052A29D15FE00A2C53D05B4AD442C8
:1023600023D100680A1D01466846FFF7DDFF684675
:1023700000F056F97FBD564D621BAC4218D005DC0B
:102380006F2C6DD0FF3C6E2C0FD182E0CD2A1BD07C
:10239000504CE24209D100680A1D01466846FFF729
:1023A000C3FF684600F0C2F87FBD002018717FBDF2
:1023B00000680A1D01466846FFF7B6FF0021017359
:1023C000684600F04FF97FBD00680A1D0146684667
:1023D000FFF7AAFF684600F07FF87FBD00680A1D7E
:1023E00001466846FFF7A0FF684600F0F5F97FBD9B
:1023F00000680A1D01466846FFF796FF684600F030
:1024000017FA7FBD00680A1D01466846FFF78CFF7A
:10241000684600F0A5FA7FBD00680A1D01466846BF
:10242000FFF782FF684600F051F97FBDFFE70A7AA7
:10243000002A0BD0022AF8D300680A1D014668461C
:10244000FFF772FF684600F06BFAEEE700680A1DBE
:1024500001466846FFF768FF684600F025FAE4E7A2
:102460000A7A002A0BD0082ADFD300680A1D014629
:102470006846FFF759FF684600F074F9D5E7006831
:102480000A1D01466846FFF74FFF684600F041F914
:10249000CBE70A7A002A0BD0082AC6D300680A1DA7
:1024A00001466846FFF740FF684600F083F8BCE746
:1024B00000680A1D01466846FFF736FF684600F0CF
:1024C00049F8B2E714600000A6030000A4A3FFFFD0
:1024D0001F7000002FFDFFFFF8B5044600680227BB
:1024E0003E4600250068FFF70FFEA168002309683B
:1024F00001220F70A1689C4609684E70A1680968A6
:102500008D70A1680968C870A06861460068037191
:10251000A06800684271A06800688171A06800210D
:102520000068C171A16808200871F8BD72B6BFF3D8
:102530004F8F04490248C860BFF34F8F00BFFDE7CB
:102540000400FA0500ED00E08968082209680160CE
:102550000271704770B5044600688AB04068214631
:10256000826804A81669D568FFF7EEFF05990498FC
:10257000019100900522694608A8FEF777FE2846DB
:10258000089902F0FDFB214604A8FFF7DDFF05993D
:10259000049803910290052202A906A8FEF766FEA0
:1025A00006993046091D02F0EBFBA168082008716E
:1025B0000AB070BD30B5044600688BB04068406911
:1025C000002828D1214604A801F088FC0599049828
:1025D000019100900522694608A8FEF747FE089879
:1025E00002F0B9FB0546214604A801F077FC0599E5
:1025F000049803910290052202A906A8FEF736FE70
:102600000698001D02F0A7FB216849688A68D5601A
:10261000106101201075A168002008710BB030BD59
:102620007FB505460068042340686A46846802A8AE
:10263000E16C0094019303F0B6FA216D0823241D88
:1026400003A86A460094019303F0ADFA02A801F0D2
:1026500053FC002802D003A801F04EFCA96800201A
:1026600008717FBDF0B50546006887B0016804A811
:10267000FFF72AFDA868059B016800790091049A7C
:1026800069460871039302920C7BE107CE17761C12
:10269000A719F9B2814212D2114622460098FEF7DC
:1026A00060FE0098002100190170002E04D0641C07
:1026B000009AE0B21018017068467F1C07716846E6
:1026C00000792873A968087107B0F0BD70B5054698
:1026D00000684068FFF75BFD002816D02868446852
:1026E00001206076A1680022CA820A834A83CA61F7
:1026F0000A624A628A62CA6202E02046FFF76EFD01
:102700002046FFF744FD0028F7D1A9680020087192
:1027100070BDF8B50446006804224068062780684A
:1027200008260A25825EC75F865F455FA06801684C
:10273000104602F034FBA06801683846891C02F09C
:102740002EFBA06801683046091D02F028FBA06836
:1027500001682846891D02F022FBA1680820087143
:10276000F8BD0000F8B504460068406840690028DC
:102770002BD16068006802F0FAFA064660680068CB
:10278000801C02F0F4FA054660680068001D02F043
:10279000EEFA074660680068801D02F0E8FA2168DA
:1027A000721E4968FA2A10D26A1E482A0DD2094AB6
:1027B00097420AD20246FF230A3AEC339A4204D2E5
:1027C00089688E80CD800F814881A16800200871C2
:1027D000F8BD0000D102000070B5064600684568EB
:1027E0006869002820D1AC6802F048FA0A23082260
:1027F00006210420E35EA25E615E205E02F05AFACA
:10280000207D002805D02169E06802F049FA002007
:10281000207521461031081F02F026FA2869006849
:10282000801CE86101202876B1680020087170BD25
:1028300070B5044600684068FFF7A9FC002814D072
:1028400020684068FFF7C0FC064620684068FFF734
:10285000A3FC054620684068FFF7A8FC0146334604
:102860002A46204600F005F870BD00231A46194696
:10287000F7E770B50446164680680A4601681D46AB
:10288000104602F08CFAA06801683046891C02F0FC
:1028900086FAA06801682846091D02F080FAA1683E
:1028A0000620087170BD000010B504460068184984
:1028B00040688068006804F047F8FF223F21D20595
:1028C0000906D04204D304F0A3F801F097FC03E01A
:1028D00003F0F4FF01F02EFE0E490F4A884205D89E
:1028E000904203DCFEF71AFF00B209E0884201D9EA
:1028F0000A4805E0904202DD0848C04300E000209D
:10290000A168096802F04BFAA1680220087110BDA5
:1029100000004843EFFFFFC6EFFDFF460080FFFFCA
:1029200010B504464068006802F021FAFEF758FF2F
:102930000849FEF743FE2168074A4968904204D8D7
:10294000064A904201DC89680860A168002008718D
:1029500010BD0000000048430000F0C10000F0413D
:10296000F0B50446006885B04068FFF710FC002809
:1029700029D02068184A40688068016A00F03EFD4E
:1029800007462068154A40688068416A00F036FDB5
:1029900006462068406881684D8BFFF715FC039060
:1029A00020684068FFF7F8FB049020684068FFF754
:1029B000FDFB01466846E0C0039B049A204600F0F8
:1029C0000FF805B0F0BD00200090019003460246CC
:1029D00001460290F2E70000000048430000C842B0
:1029E000FFB581B004460AA8E0C8A0680A4601689D
:1029F000104602F0D4F9A06801680398891C02F01F
:102A0000CEF9A06801680498091D02F0C8F9A06811
:102A1000694600680D804978817169460978C171FD
:102A2000A06801683046083102F0B9F9A068016871
:102A300038460A3102F0B3F9A1680C20087105B0DC
:102A4000F0BD7FB50D4669460C7B297900208C428C
:102A50000BD2029922462868FEF783FC28680021E1
:102A600000190170641C2C71012004B070BD10B5F8
:102A7000029C1EC0103810BD1CB542680446002AD6
:102A800009D02168A0689047684602F007FB4168BA
:102A9000A160006860601CBDF0B589B00546041DEA
:102AA0000E4606A802F0FAFA4168616000682060EC
:102AB00071783046022400270C3093297ED00CDC3C
:102AC00003293CD004DC002910D0012917D127E0CC
:102AD000602959D06129F9D1AFE0D0296FD0D1292F
:102AE0006ED0D3296DD0F329F0D13BE1317A0029A2
:102AF00004D072681278002A10D101E00124DCE0D1
:102B00000129FBD1296801AC00902A1D331D204604
:102B1000FFF7ADFF01A800F02FFBCCE00424CCE0D0
:102B2000317A0029EAD1296801AC00902A1D331DB1
:102B30002046FFF79CFF01A800F084FABBE0317A41
:102B40000029DBD0726812780A2A0FD00B2AE5D14F
:102B50000129D3D1296801AC00902A1D331D2046DC
:102B6000FFF785FF01A800F0EFFBA4E00129C5D124
:102B7000296801AC00902A1D331D2046FFF777FF1E
:102B800001A800F028FB96E0327A002AB6D07168DE
:102B90000978802937D015DC012925D00829BDD135
:102BA000012AABD1296801AC00902A1D331D2046B3
:102BB000FFF75DFF01A800F06AFA7CE0C3E061E086
:102BC000A3E0B1E081292CD08829A7D1092A95D189
:102BD000296801AC00902A1D331D2046FFF747FFEE
:102BE00001A800F07DFA66E0012A87D1296801ACCE
:102BF00000902A1D331D2046FFF739FF077401A8F6
:102C000000F018FB57E0012A8CD1296801AC009034
:102C10002A1D331D2046FFF72AFF01A800F05FF9A7
:102C200049E0296801AC00902A1D331D2046FFF7BA
:102C30001EFF01A800F04EFB3DE0317A0029A5D02F
:102C400072681278082A0FD0882AA8D109298ED153
:102C5000296801AC00902A1D331D2046FFF707FFAD
:102C600001A800F003F926E001299AD1296801ACF6
:102C700000902A1D331D2046FFF7F9FE01A800F041
:102C8000BCF818E0317A0029D9D072681278002A8D
:102C90001DD0012A2AD0032A97D1012997D129686A
:102CA00001AC00902A1D331D2046FFF7E0FE07749B
:102CB00001A800F091F9040006D0684602F0EEF990
:102CC0004168A96000686860204609B0F0BD01292C
:102CD0008BD1296801AC00902A1D331D2046FFF7D7
:102CE000C6FE077401A800F04AF9E4E701298BD178
:102CF000296801AC00902A1D331D2046FFF7B7FE5E
:102D0000077401A800F01DF9D5E7317A00299ED19A
:102D1000296801AC00902A1D331D2046FFF7A7FE4D
:102D200001A800F02EF8C6E7317A00298FD1296872
:102D300001AC00902A1D331D2046FFF798FE01A824
:102D400000F046F8B7E7317A00298ED1296801AC46
:102D500000902A1D331D2046FFF789FE01A800F0D0
:102D600059F9A8E7317A002998D1296801AC009077
:102D70002A1D331D2046FFF77AFE01A800F01DF939
:102D800099E7F8B50446006802273E46002500682A
:102D9000FFF7BAF9E1680023096801220F70E168C2
:102DA0009C4609684E70E16809688D70E1680968A1
:102DB000C870E068614600680371E06800684271AD
:102DC000E06800688171E168072008710020F8BDA3
:102DD0007CB504460025684601F0FAFF6168019859
:102DE000486000980860E068057128467CBDC968A5
:102DF0000822096801600271704770B504460068D6
:102E00008AB04068FFF7C3F900282DD0206821461A
:102E1000406880680669C56804A8FFF7E8FF05995F
:102E20000498019100900522694608A8FEF71EFA51
:102E30002846089901F0A4FF214604A8FFF7D7FF10
:102E40000599049803910290052202A906A8FEF7AD
:102E50000DFA06993046091D01F092FFE16808203D
:102E6000087100200AB070BD4320FBE730B504466E
:102E700000688BB04068FFF78AF9002802D0432031
:102E80000BB030BD214604A801F02EF80599049836
:102E9000019100900522694608A8FEF7E7F9089815
:102EA00001F059FF0546214604A801F01DF80599D7
:102EB000049803910290052202A906A8FEF7D6F90C
:102EC0000698001D01F047FF216849688A68D560AF
:102ED000106101201075E16800200871D0E730B55D
:102EE0000546006885B040680423846803A8E16C47
:102EF0006A460094019302F056FE216D0823241DBA
:102F000004A86A460094019302F04DFE03A800F065
:102F1000F3FF002806D004A800F0EEFF002801D03F
:102F2000002100E0FF216846017202A800F0EBFFDB
:102F3000002802D07F2005B030BDE968002008716C
:102F4000F9E77FB504460068016802A8FFF78EF82C
:102F5000E068039B016800790091029A6D46287130
:102F600069462046FFF76DFD01002879207404D0E2
:102F7000E1680871002004B070BD7F20FBE77FB5D9
:102F800004460068016802A8FFF77EF8E068039B2A
:102F9000016800790091029A6D46287169462046C1
:102FA000FFF74FFD01002879207404D0E168087113
:102FB000002004B070BD7F20FBE77CB504460025EF
:102FC000684601F0FFFE616801984860009808605B
:102FD000E068057128467CBD7FB50446006801683D
:102FE00002A8FFF771F8E068039B0168007900917F
:102FF000029A6D46287169462046FFF722FD0100BE
:103000002879207404D0E1680871002004B070BDF4
:103010007F20FBE708B5016889680A68C16809680C
:1030200000926A46D2780A706A4692784A706A4676
:1030300052788A706A461278CA70C1680420087192
:10304000002008BD70B5064600684068FFF79FF88D
:1030500000280ED03068456801206876A9680024F1
:10306000CC820C834C83CC610C624C628C62CC624F
:1030700004E0432070BD2846FFF7B0F82846FFF76C
:1030800086F80028F7D1F1680871204670BDF8B5C0
:1030900004460068042240680627806808260A253E
:1030A000825EC75F865F455FE0680168104601F099
:1030B00076FEE06801683846891C01F070FEE06821
:1030C00001683046091D01F06AFEE0680168284683
:1030D000891D01F064FEE168082008710020F8BD38
:1030E000F8B50446006840684069002801D04320D4
:1030F000F8BDA0680068401C01F039FE0646A068D3
:103100000068C01C01F033FE0546A0680068401D41
:1031100001F02DFE0746A0680068C01D01F027FEE3
:103120002168721E4968FA2A14D26A1E482A11D2EE
:10313000094A97420ED20246FF230A3AEC339A42DA
:1031400008D289688E80CD800F814881E168002097
:103150000871F8BD0420F8BDD102000072B6BFF3BB
:103160004F8F04490248C860BFF34F8F00BFFDE78F
:103170000400FA0500ED00E0F8B506460068456871
:103180006869002801D04320F8BDAC6801F076FDE5
:103190000A23082206210420E35EA25E615E205E0F
:1031A00001F088FD207D0027002804D02169E06817
:1031B00001F076FD277521461031081F01F054FDFE
:1031C00028690068801CE86101202876F1680020E9
:1031D00008713846F8BDF8B5044600684068FEF747
:1031E000D6FF002824D020684068FEF7DFFF07469E
:1031F00020684068FEF7D0FF064620684068FEF76A
:10320000E3FF0546E0680168384601F0C8FDE06864
:1032100001683046891C01F0C2FDE068016828465B
:10322000091D01F0BCFDE168062008710020F8BD11
:103230004320F8BD30B50546006887B04068214995
:103240008068006803F080FBFF223F21D205090659
:10325000D04204D303F0DCFB00F0D0FF03E003F026
:103260002DFB01F067F91849184A884205D89042A9
:1032700003DCFEF753FA04B209E0884201D9144C8A
:1032800005E0904202DD124CE44300E00024E868CF
:10329000052201680079009169460871019900983A
:1032A0000391029002A904A8FDF7E0FF20460499CB
:1032B00001F075FD02202874E9680871002007B04C
:1032C00030BD000000004843EFFFFFC6EFFDFF46A2
:1032D0000080FFFF3EB50446806801680079491C04
:1032E000401EC0B2019169460872042802D002282B
:1032F0000CD01BE001986A460178D170417891703A
:1033000081785170C0781070009807E0019801F042
:103310002EFDFEF765FA0949FEF750F92168084AC3
:103320004968904202D8074A904201DD04203EBD20
:1033300089680860E168002008713EBD00004843CC
:103340000000F0C10000F041FEB50446006840688E
:10335000FEF71DFF00284AD020684068FEF726FFD0
:10336000029020684068FEF717FF019020684068CF
:10337000FEF72AFF009020681E4A40688068458B4F
:10338000416A00F03BF8074620681B4A40688068A5
:10339000016A00F033F80646E0680168029801F01F
:1033A000FEFCE06801680198891C01F0F8FCE06807
:1033B00001680098091D01F0F2FCE06869460068A8
:1033C0000D804978817169460978C171E0680168AA
:1033D0003846083101F0E3FCE068016830460A3104
:1033E00001F0DDFCE1680C2008710020FEBD4320E7
:1033F000FEBD00000000C8420000484310B508466A
:10340000114603F0A1FAFF223F21D2050906D0425E
:1034100004D303F0FDFA00F0F1FE03E003F04EFAEE
:1034200001F088F80A490B4A884205D8904203DC2B
:10343000FEF774F900B210BD884201D9064810BDEC
:10344000904202DD0448C04310BD002010BD0000C2
:10345000EFFFFFC6EFFDFF460080FFFFFEB504460D
:10346000002020606060A060E060206196468C468D
:103470002075E08220836083E06120626062A06248
:10348000E0622746204621462037303016318A1C1C
:10349000061F96C03B1D1D1D68C061467046E16455
:1034A00020650422019202A800946A4602F052FBB1
:1034B0006420A0800C20E080B42020813220608134
:1034C000216D201D082202AB019200906A46184629
:1034D00002F040FB2046FEBDFEB5044600680088B1
:1034E00000F0BAFCE16808606068008800F0A0FCA9
:1034F000216908600020009020692A490668E06878
:103500000568284603F0DAF901902749284603F0B8
:10351000D5F907462549284603F016FA3946FEF73D
:103520004DF800F09FFE054621493046FEF746F86B
:10353000204E314603F008FA294603F005FA0199B6
:10354000FEF73CF80090E0681B490068096803F04A
:10355000B5F9A168096803F0B1F961690746086027
:10356000009DA469104903F0A9F901900F4938465C
:1035700003F0EAF90199FEF721F800F073FE3146F5
:1035800003F0E2F906460749384603F097F908497F
:1035900003F0DAF9294603F0D7F93146FEF70EF8C1
:1035A0002060FEBD33938843B81E7343C3F58C413E
:1035B0000000C8420D8FA544006C00081CB5694688
:1035C00031220A70FF20487088700023CB700422DB
:1035D00001A8FDF7C6FE01981CBD7CB5044600207D
:1035E000694608706079002802D1A079002817D0B8
:1035F00000266671A6712568686801F0A1FD28683B
:10360000816800688161A86800F056FC6968886874
:1036100009688861A86800F047FC68460671067072
:1036200020467CBD00780978884201D1012070478E
:10363000002070477CB51E46069D00F0C7F9044681
:103640008168006881613146204600F094F90120CC
:1036500001460090204600F021F90120014601902A
:10366000204600F03FF92046294600F066F9204642
:103670007CBD00000120034900040A680242FCD11D
:1036800070470000102002407047000010B504464B
:10369000007A002804D0074801698908890001617F
:1036A00020460C3003F0E0F8002802D0E1682069E1
:1036B000884710BD00E000E010B5029C1EC0034921
:1036C00010388A4201D00149143110BD080002406F
:1036D0000068006881680122D2031143816070474D
:1036E00070B504AC70CC06C00370446005724672BD
:1036F000083870BDFFB581B00126F6021F4614469A
:1037000000960299019800F019FC019800F0F4FB72
:1037100000284CD0029800F0A5F8029800F02EFC8A
:10372000244D28697F21C90008432861E71918E062
:1037300068690221084368611F20C0062018C00381
:10374000800E6969C000FF22F93291430843686125
:1037500068690121090408436861029800F00EFCC1
:10376000A419A742E4D869690220814369612868E5
:10377000800511D5286801214902884328602868FE
:1037800030432860BFF34F8FBFF36F8F2868B0437B
:103790002860286808432860029800F057F86846B7
:1037A000019C029900F0C0FB68460078207005B0CB
:1037B000F0BD0000002002400FB4F8B50A9E0820BA
:1037C00006AC009007CC1D46334600F0B7FB0698C8
:1037D00000F092FB002833D0079800F043F80798D8
:1037E00000F0CCFB184F38697F21C90008433861CD
:1037F0007869012108437861002410E028190168E4
:10380000089800190160211D69180968416007982E
:1038100000F0B4FB38694008400038610834A64223
:10382000ECD87869400840007861079800F00EF8FD
:103830006846069C079900F077FB68460078207080
:10384000F8BC08BC04B018470020024010B500F0D6
:1038500095FB0348416982041143416110BD00009A
:103860000020024004484169002903DA03498160CD
:103870000349816070470000002002402301674532
:10388000AB89EFCD0168CA6800790323400083400B
:103890009A43022383401343CB60704701220029DF
:1038A00008D0012905D101684B6800798240134393
:1038B0004B60704701684B68007982409343F7E79B
:1038C00030B5037904685A07D808D20E800020303A
:1038D00023580F2595400907090FAB439140194321
:1038E000215030BD032200290DD0012912D0022918
:1038F00018D0032906D101680B6800794000824086
:1039000013430B60704701680B68007940008240E8
:103910009343F6E701680B680079400082409343C7
:10392000012206E001680B68007940008240934361
:10393000022282401A430A60704710B5032300290F
:1039400006D001290CD0022901D1FFF79BFF10BD41
:103950000168CA680079400083409A43CA6010BD7C
:103960000168CA680079400083409A43012383407C
:103970001343CB6010BD032200290DD0012912D0C2
:10398000022918D0032906D101688B68007940000C
:10399000824013438B60704701688B680079400058
:1039A00082409343F6E701688B68007940008240CB
:1039B0009343012206E001688B6800794000824051
:1039C0009343022282401A438A60704710B5012354
:1039D00001601C46027194408460052424070F4A4C
:1039E000A14201D1516B04E00D4B994204D1516BBE
:1039F00002231943516310BD0A4B994202D1516B06
:103A00000423F6E7084B994202D1516B0823F0E7F3
:103A1000064B9942EFD1516B2023EAE70010024098
:103A20000004005000080050000C0050001400502A
:103A300010B50446006800F071FA00281FD0206815
:103A40000068006800688006C00F18D06068002811
:103A50000DD0206800680068406A6268C1B2A06842
:103A60009047206800F05AFA0028F2D107E0206859
:103A700001680968496A00F051FA0028F7D1206806
:103A800000680068C16940220906C90F002918D0E2
:103A900001680906C90F14D06169A369994206D269
:103AA0006169097881626069401C606109E00168B0
:103AB0008023994301602068006800680168114311
:103AC0000160206800680068C1694906C90F16D006
:103AD00001684906C90F12D00262206800680068B8
:103AE0000168914301600020A061606120460C30B4
:103AF00002F0BAFE002802D0E168206988472068F9
:103B0000082100680068016210BD0000FEB50025B4
:103B100045608560016016460C3001F0C3FA04462A
:103B20000C3C8560C56021466846256801F0A0F917
:103B3000286826494068C000D8384018019941607B
:103B4000009901602068006800680168012252073E
:103B50001143016020680068006801680422114375
:103B60000160206800680068016808221143016054
:103B7000256830462968AA680968CA62FDF738FED8
:103B80000746A889FDF734FE06466868FDF730FE53
:103B90003146FDF713FD3946FDF710FD01F096F8AB
:103BA000014628680068C1602568286800680168C7
:103BB00001221143016028684068FEF74BFA28682B
:103BC0004068FEF719FA2046FEBD00002C020020D6
:103BD00070B5044600680168096889690907C90F5A
:103BE00019D000F095F9002808D020461C3002F0CA
:103BF0003BFE00280AD0E169206A06E0201D02F0A1
:103C000033FE002802D06168A06888472068082138
:103C100000680068C16120680168096889698906CF
:103C2000C90F1AD000F074F9002808D020462C30B3
:103C300002F01AFE00280BD0E16A206B07E0204654
:103C40000C3002F011FE002802D0E168206988479C
:103C50002068202100680068C16120680068006851
:103C600081694907C90F10D06269002A0DD0406AE6
:103C7000C1B2A0699047002807D02068006800689A
:103C800041680122D2031143416020680068006846
:103C90008069C006C00F0DD02046243002F0E4FD3C
:103CA000002802D0616AA06A884720681021006855
:103CB0000068C16125682868006881698907C90FA3
:103CC0000AD0616B002905D0A06B88472968096874
:103CD000886201E0FF2181622068006800688169D4
:103CE0008904890E04D0C1693F2212021143C161C7
:103CF00070BD10B5026812681268936901242343ED
:103D00009361006800680068816210BD7CB502C0E4
:103D1000164601F0C7F9083001F0C4F90146083031
:103D2000002505600C39456008461C3001F0BAF9E1
:103D3000083001F0B7F9083001F0B4F904462C3C22
:103D4000083005604560206800680068016801224D
:103D500052041143016021680868006802680F235B
:103D60001B029A43026008680068016802252A0263
:103D7000114301602068016809688A686B029A43F0
:103D80008A60016809688A68920A92028A600068FB
:103D9000006881687200114381602068FFF798FC19
:103DA00021466846266801F077F830681649406871
:103DB000C000B8384018019941600099016020683E
:103DC00000680068016820221143016020680068D3
:103DD00000680168102211430160206800680068D3
:103DE00001680822114301602068006800680168CA
:103DF00004221143016020680068006801682943BB
:103E0000016020467CBD00003400002038B51D460E
:103E1000FFF7DCFD04460020014600902046FFF736
:103E200061FD20462946FFF788FD204638BD000089
:103E300010B5FDF7DDFC054902F086FD044902F0EE
:103E400083FD044902F03AFD10BD00000000FA4273
:103E5000800080370000C0C010B5FDF7C9FC0549DF
:103E600002F072FD044902F06FFD044902F026FDE4
:103E700010BD000000002F4380008037000034C2D6
:103E8000002000BF401C0A28FBDB70477047002061
:103E900000BF401C0928FBDB7047002000BF401C0E
:103EA0000928FBDB70477047002000BF401C0C282E
:103EB000FBDB704770477047002000BF401C0C2898
:103EC000FBDB7047002000BF401C0C28FBDB704769
:103ED000002000BF401C0C28FBDB704749680A68C3
:103EE000097902600171704789680A680979521C72
:103EF000491E0260017170470078002801D000203F
:103F00007047012070470078002800D001207047DA
:103F1000006800688069C003C00F704700680068CF
:103F2000C0698006C00F7047034909698905490EB9
:103F300000D00521017070470020024070B5044692
:103F400008681D46049EA84213D30121C9068A426F
:103F50000FD3401B401890420BD331461046FDF75B
:103F60006AFA002905D131462846FDF764FA00298E
:103F700002D00520207070BD0020FBE7012003491E
:103F800000040A680242FCD1704700001020024081
:103F9000016809698068014201D001207047002052
:103FA0007047F8B504148BB2264682B25E430D14F6
:103FB00010463714584336048019002179411646BB
:103FC0006E43371436048019794126466E438919A9
:103FD000F8BD30B47446641E2578641CAB4200D230
:103FE0001D46635D5B00E31830BC184741000802C2
:103FF00000D004200A0E01D001221043090EFF292F
:1040000001D102210843012800D105207047FFB5E6
:1040100081B01C4617460E0007D0019D02E02846DD
:10402000B047ED192046641EF9D2019805B0F0BDE5
:1040300010B50121FDF72AFC10BD10B50720612144
:104040000007FDF723FC10BD5E2110B5C94308072A
:10405000FDF71CFC10BD000010B51023082202491A
:104060000248FFF7D4FF10BDA55000083C01002016
:1040700010B50523082202490248FFF7C8FF10BD0A
:10408000A5500008C40000200248002101604160E2
:10409000704700001C00002038B51B4D194B194C0F
:1040A000083D803B184A294618480094FFF704FB56
:1040B000144B154A15487C3B1432294610300094A5
:1040C000FFF7FAFA0F4B104A1048783B283229467E
:1040D00020300094FFF7F0FA0A4B0B4A0B48743B70
:1040E0003C32294630300094FFF7E6FA054B064A89
:1040F0000648703B5032294640300094FFF7DCFA06
:1041000038BD00008008024008000240EC0000209A
:1041100003480449172206C00349182206C0704705
:104120000C000020005400400058004010B502234D
:10413000082202490248FFF76AFF10BDA550000897
:1041400034000020FEB504200126134C0290002309
:1041500010221249019600941148FFF7C1FA002578
:104160006F460F4870C7012313220E491430FFF722
:10417000B7FA6F460A4870C7022315220A49283049
:10418000FFF7AEFA6F46064870C7032316220749A9
:104190003C30FFF7A5FAFEBDFFFF00000004004021
:1041A000BC010020002000400044014000480140C4
:1041B00010B50423082202490248FFF728FF10BD6A
:1041C000A55000080C020020034804491B2206C029
:1041D00003491C2206C0704724000020003801401B
:1041E0000044004010B50223082202490248FFF7AC
:1041F0000EFF10BDA55000082C020020F8B54100AC
:104200000D0E7F3D0446172D27DAFF273F06134981
:10421000002D0FDA02F052FB4100B9421CD80028F1
:104220001ADD002C01DAFC0116E0002C14D07F24EA
:10423000E40511E00A4EEE4030420ED002F03EFBA3
:104240004100B94208D8002806DD002C03DD01201A
:10425000C005E8400419B4432046F8BDCAF24971CC
:10426000FFFF7F00F8B50446992140000906474A40
:1042700000254118914246D84549204602F064FB8A
:10428000FDF7C4FA0646FDF749FA074641493046AC
:1042900002F05AFB00904049304602F055FB21469F
:1042A00002F0AAFB009902F0B3FB04463B4902F07E
:1042B0004BFB3B4902F002FB214602F045FB39492A
:1042C00002F0FCFA214602F03FFB374902F0F6FA11
:1042D000214602F039FB0146B807040F3348784401
:1042E000005902F031FB32497944095902F0E6FAEB
:1042F00030497944095902F0E1FAB910002D27D16B
:10430000FDF7C4FAF8BDE1434900090E06D0672164
:10431000090688420CD27F20C005F8BD0121C905DD
:104320002046CC4201D10020F8BDFFF781FEF8BD48
:10433000214988420AD90220FDF762FA002C02DAEC
:10434000FFF782FEF8BDFFF778FEF8BD012593E781
:10435000FDF79CFA040009D0FF20C00584420BD170
:104360000220FDF74DFAFFF768FEF8BD0220FDF7C9
:1043700047FAFFF769FEF8BD2046FFF737FE04282D
:1043800001D1FFF761FE2046F8BD00000000501E7D
:104390003BAAB840F4FD05370070313E12BB2A3D00
:1043A00012BB2A3EFFFFFF3EFFFF7F3FA229000016
:1043B000882900006E2900000000A08570B5012644
:1043C000F607054600292BD0002D01DB034600E04F
:1043D0006B42002901DB0A4600E04A42002001242A
:1043E000240401E0520064009A42FBD3002C17D051
:1043F000002A0CDA934201D320439B1A520804E0AE
:10440000934201D320439B1A5B00640801D0002B28
:10441000F6D1934200D3401C4D4002D5B04201D1A9
:10442000304670BD404270BDF8B504461148844224
:1044300001DB1148F8BD1148844201DC0020F8BDC1
:10444000002C02DA64420E4F01E00D4F103F0120B4
:1044500000040546002604E0B100795800F012F887
:10446000641BAC42F8DA761CED10B6B2042EF8D319
:10447000F8BD0000AF650A00FFFFFF7F6D37F4FF56
:10448000146C000830B5031482B21D460C1488B2B7
:10449000654354434343191942430814090440191E
:1044A0005118914200D2401CC217C3139A4202D045
:1044B0000120C00730BD0122D2038A1AC30FD21ACD
:1044C0008A4200D9401E0004110C0843401C30BD34
:1044D000014610B500200122920700E092088A42AE
:1044E000FCD8002308E084188C4203D8091B40083C
:1044F000801800E040089208002AF4D1002B0ED169
:104500000B4A914207D9091A01220904D203891AD8
:104510000004801801E009040004012292035B1CDE
:10452000DBB2022BE8D3814200D9401C10BD000051
:10453000FFFF0000F8B541000D0E7F3D0446172D2A
:1045400028DAFF273F061449002D10DA02F0B6F9E9
:104550004100B9421DD800281BDD002C01DB0024DE
:1045600017E00120C007844213D00C4C11E00C4E20
:10457000EE4030420ED002F0A1F94100B94208D815
:10458000002806DD002C03DA0120C005E8400419EC
:10459000B4432046F8BD0000CAF24971000080BF54
:1045A000FFFF7F0010B5FFF76FF810BDFF48FFB0A9
:1045B000FFB00268C6B001148A430260016803229A
:1045C00052029143FF31FF3102310160F84D2868FA
:1045D0000721C90288432860A868C008C000A860F5
:1045E000F44C2068C008C00020602868012109063A
:1045F00088432860F04900200870266AEF03B00164
:10460000800F02282DD0D0038643B810064360697E
:10461000002803DAE948A060E948A060FFF72AF81B
:104620006069400003D5E748E060E748E060FFF7D5
:1046300021F820697F21C900084320612662FFF725
:1046400019F860690126760430436061FFF712F8BB
:104650006069B0436061606938436061FF2069460A
:10466000087000200524FFAE034624079C364F90B7
:10467000042221463046FFF7C9FB0020FFAF034666
:10468000A8375090052221463846FFF7BFFB00208F
:1046900003465190FFA8062221465C30FFF7B6FB87
:1046A00000202146FFAC0346B4344D90072220463B
:1046B000FFF7ACFB304602F0FDF80646384602F044
:1046C000F9F8002800D002200643FFA85C3002F071
:1046D000F1F8002800D004200643204602F0EAF852
:1046E000002800D008200643022E00D0FEE710214B
:1046F0006A9127910621012428AB289127AF1C71CC
:104700002AA800F0CFFCB14904200861B04839461E
:10471000684422466D9401F0F9FC5BA800F048FB68
:104720005B9800905C9801902B90009802212A9051
:10473000C81EFDF76DFC384601F016F8FFA84D9431
:10474000679423460322A34968300094FEF772FF62
:10475000FFA851946894234604229E49C0300094D7
:10476000FEF768FF50946994FFA8234605229949F3
:10477000CC300094FEF75EFFFFA84F946094234670
:1047800006229449D8300094FEF754FF4D9460946B
:10479000234600228F4940A80094FEF74BFF6994FE
:1047A000FFA85194234601228A49E4300094FEF781
:1047B00041FF5094FFA86894234602228549F030B7
:1047C0000094FEF737FF0521FFA84F946794234616
:1047D00008220907FC300094FEF72CFFFEF7EEFEDE
:1047E000FFA9683161900A463DAF40A8A83207C7CB
:1047F0004099429888613E988168006881610C3FC9
:104800003F98FFF751FB442140AB4397197443AAEB
:10481000189261A8459018A900200871487110AB42
:104820001A9098858873188658861D9052911E900C
:1048300000216094FFA86591743007222C9465498B
:10484000FFF7C4F86599044601293CD001890904A1
:104850002068816120462C99FFF78DF800200146E1
:1048600000902046FFF71AF80120014601902046EB
:10487000FFF738F84697592340AA137761A802AF8B
:1048800048903846FFAA46A9743206C700246B46F2
:104890001C745C749C7405941C839C769C830894A3
:1048A00009941C8501215C85C90399854A49D985EC
:1048B000224606211C30083FFCF794FD27A84997A3
:1048C00000F052FF0BE08168C2E73B490A78002AFA
:1048D00005D00C7001F01EFF499801F0FBFD5298C5
:1048E00081690029F1D04999498C0029EDD0499975
:1048F00006234A8C1C312C9106212D91816900924E
:10490000FFA8019634302C9AFDF700FC3348344A56
:1049100000880CAE8102669166A9324B17148EC6D0
:10492000082115941091119412941394149410A8C2
:1049300004762D48103E31466844179401F0D4F9AE
:10494000FA1050A853960282FF2355960233038330
:10495000F4AE53A955AA3046FEF780FD164952AA77
:1049600049AF0B1D249420A82097219623931F92D2
:104970002291047544750E48269440300168012345
:10498000194301601949086818221043086000277C
:104990000521FFA83A46090750304D93FFF736FA34
:1049A0000026002000BF401CFF2821E000700040CE
:1049B0000010024000200240000000202301674553
:1049C000AB89EFCD3B2A19087F6E5D4C00E000E01B
:1049D000080500000004005066660000E075FF1F37
:1049E0000070000800780008040500000000014085
:1049F000D8D3FFA8503001F05DFF002800D0012778
:104A0000761C642ECDD30526360709223146F1A83F
:104A1000FEF7DCFFFFA80A2231462830FEF7D6FF5A
:104A200087481FAEC0684C90FFA834304A903800C9
:104A30004B964AAF7ED0FFA801212830FEF740FFF9
:104A4000002001466290FFA82830FEF776FF022082
:104A500001464E90FFA82830FEF744FF0121F1A83F
:104A6000FEF72EFF002001466390F1A8FEF716FF27
:104A7000012001466490F1A8FEF77DFF0220014667
:104A80004E90F1A8FEF72EFF10236B936E4B6D48EE
:104A90006C9330906D4831900220329030A9042000
:104AA000888130986A4A0068904205D16948026856
:104AB0001B111A43026007E0674A904204D1E86B79
:104AC000012252041043E863FFADE1228035520217
:104AD0002846FFF71BF8832189006EA8FCF7A9FC84
:104AE000294634AD6EAA284600F093FF002228A87C
:104AF0002C9502752CA92E9468462F9400F076FA16
:104B00000199379100995DAC5EA85D97369100F0F0
:104B1000C5FA214657A800F07FFA58992F91579966
:104B20002E91214659A800F079F9599A00922C99B2
:104B30005A9A00E00AE001924A61009A0A61284606
:104B400000F0C4FE3046FDF749FBF8E7FFAC28341F
:104B500006212046FEF7B4FE0120014600902046C3
:104B6000FEF79CFE0120014601902046FEF703FF60
:104B70000220014639902046FEF7B4FEF1AC062132
:104B80002046FEF79DFE0120014600902046FEF7DC
:104B900085FE0120014601902046FEF7ECFE022032
:104BA000014639902046FEF79DFEFFA85030FEF7E3
:104BB00069FE2A483C902A4A0168914207D1254C57
:104BC000626903231B039A434B14D2186261244A7F
:104BD000914203D1E96B0122520505E0214A91423D
:104BE00004D1E96B012292051143E96300213CAC39
:104BF0004068FDF70DFA21466EAC6A222046FFF7A9
:104C000085F87DAD38212846FCF713FCFEF7D6FC6D
:104C100021462CAC4E902B464EAA204601F0B8FB04
:104C200057A93AA8579700F00DFA3B9830903A9858
:104C30002F90204601F00EFB3046FDF7CFFAF8E743
:104C4000F06B000824000020020004000024F4009F
:104C50000038014040100240004400400C00002099
:104C600000540040005800400A4610B50146024872
:104C7000FDF738F910BD00004400002010B50248CF
:104C8000FDF738F910BD0000440000200A4610B5B9
:104C900001460248FDF742F910BD00004400002023
:104CA0000A4610B501460248FDF78CF910BD000018
:104CB0004400002008B5009313460A460146024806
:104CC000FDF78CF908BD00004400002010B50F4C22
:104CD0003F210906A04204D301F09AFEFFF78EFAA5
:104CE00003E001F0EBFDFFF725FC0949A04205D2E6
:104CF000884203DCFCF738FD80B210BDA04201D32E
:104D0000002010BD8842FBDD024810BD00008080FD
:104D1000EFFE7F47FFFF000070B5437883700024EB
:104D20000EE083780D5D6B40837008238578EE0973
:104D30000FD006786D00754085705B1EF6D1641C3F
:104D40009442EED38178C27851404278827008460E
:104D500070BD6D00F0E708B501786A46D170417802
:104D6000917081785170C0781070009808BD08B5B6
:104D700001786A465170407810700020105E08BDBE
:104D800008B500906846C07808706846807848701A
:104D900068464078887068460078C87008BD08B5D5
:104DA0006A461080507808701078487008BD7047C7
:104DB0000149002206C07047BD4D000810B5FDF73F
:104DC0009FFA10BD0149002206C07047DD4D000862
:104DD0000149002206C07047E94D000801480068FB
:104DE00000470000080200080846FEF7B7F9000077
:104DF000014A026041607047FD4D000806490A46BD
:104E0000896A2032491008185168127AD20702D0F4
:104E10000268511809680847706B0008014A02606F
:104E200041607047294E000806490A46096F603202
:104E300049100818D168127CD20702D002685118B4
:104E400009680847F06A0008014A0260416070473B
:104E5000554E000805498A68521010180A7A4968A8
:104E6000D20702D00268511809680847F06A0008A2
:104E7000014A0260416070477D4E000805498A6919
:104E8000521010180A7E4969D20702D002685118E0
:104E900009680847F06A0008014A026041607047EB
:104EA000A54E000806490A46896A203249100818AA
:104EB0005168127AD20702D002685118096808476F
:104EC000F06A0008014A026041607047014F000823
:104ED000014A0260416070471D4F0008014A0260AC
:104EE000416070473D4F0008014A026041607047D1
:104EF000594F0008014A026041607047794F00082D
:104F000005498A68521010180A7A4968D20702D0F7
:104F10000268511809680847706B000806490A467C
:104F2000096A1C324910081811681279D20702D098
:104F30000268511809680847706B000805490A693A
:104F4000521010180A7CC968D20702D002685118A2
:104F500009680847706B000806490A46896F603285
:104F6000491008185169127ED20702D00268511800
:104F700009680847F06A000805498A695210101844
:104F80000A7E4969D20702D00268511809680847A9
:104F9000706B0008014A026041607047A14F000831
:104FA00006490A46096C3C32491008181168127902
:104FB000D20702D00268511809680847F06A000851
:104FC000014A026041607047CD4F000830B4064A84
:104FD000536812685C102018DB0702D003689A1827
:104FE000126830BC104700006C6B0008014A026078
:104FF00041607047F94F0008064A1346926D4033EE
:10500000521010185A691B7EDB0702D003689A18E9
:1050100012681047F06A0008014A02604160704758
:1050200025500008064A1346926E6033521010183D
:105030005A681B7ADB0702D003689A181268104777
:10504000F06A0008014A0260416070475150000850
:10505000064A1346926E6033521010185A681B7A33
:10506000DB0702D003689A1812681047706B0008BB
:10507000014A0260416070477D500008064A1346AD
:10508000926B2033521010185A691B7EDB0702D036
:1050900003689A1812681047F06A0008002101603E
:1050A000416070470021016041607047F8B50646D5
:1050B0001046144601220092069D0A681F46AA4225
:1050C00012D30121C90688420ED3521B51188142C6
:1050D0000AD30099FCF7AFF9002905D128460099B9
:1050E000FCF7A9F900290CD0052030703046FEF7F6
:1050F00003FF002804D0214638462A46FCF731F940
:10510000F8BD0020F1E7FEB50190089C01201E4685
:105110000090099F154623460198FEF70FFF01985E
:10512000FEF7EAFE002808D0284631462246FCF762
:10513000EBF8002802D000203870FEBD0120FBE70C
:105140000189006809048161704710B50446006850
:105150008168006881616068816800688161A06819
:10516000FEF7B6FE6068FFF7EBFFA068FEF7AAFE49
:105170002068FFF7E5FFA068FEF782FE10BDFFB5CF
:105180000546002083B01E461746287004460DE0F1
:105190000C9869460078087101AB3A5D684604993D
:1051A00000F06AF8694608782870641CB44204D29A
:1051B0002846FEF7A1FE0028EAD107B0F0BDFFB5F2
:1051C00083B00C4600210C9F1170606816468268FF
:1051D00000688261039807250170A068FEF76AFEE7
:1051E0002068816800688161387869460870A06825
:1051F000FEF74DFE606801F040FB002802D0012060
:10520000A840C0B23178084330702068FFF798FF9B
:10521000A068FEF735FE6D1EDFD506980128606890
:1052200017D0816800688161A068FEF744FE20689D
:105230008168006881610398FEF75EFE002810D047
:10524000694638780870204601F01BFB002803D01F
:1052500007E0FFF775FFE7E701216A460398117140
:105260000170A068FEF719FE2068FFF769FFA068CB
:10527000FEF706FE07B0F0BDFFB50646002083B07E
:105280001F460C463070072501200599A8400842AA
:10529000606803D081680068816101E0FFF750FF1A
:1052A000A068FEF708FE2068816800688161387890
:1052B00069460871A068FEF7F0FD2068FFF740FF1F
:1052C000A068FEF7DDFD6D1EDED5606881680068B0
:1052D0008161A068FEF7EEFD206881680068816149
:1052E000694638780870204601F0CBFA002803D1CF
:1052F0000120694608713070A068FEF7C8FD30468D
:10530000FEF7FAFD002808D0606801F0B6FA002820
:1053100003D002206946087130702068FFF710FF43
:10532000A068FEF7ADFD07B0F0BDFEB5099E6F4663
:105330003678089C3E7202AD0195009400F047F863
:10534000FEBDF0B585B005460A980C460078694662
:105350000871087217461E4602AA2146284600F028
:1053600015F82846FEF7C8FD00280DD06A461179C9
:10537000117404A8009033463A4603A82168FFF749
:10538000FEFE6A46107B287005B0F0BDFEB5002316
:1053900003704B79002B19D101234B7100238B71C2
:1053A00004466E460F7910780D6830712846FFF775
:1053B000CCFE694608790872F819C2B202AB2946D8
:1053C0003046FFF759FF694609782170FEBDFFB5E9
:1053D0008BB0054615980C46007869460876002083
:1053E0002870A07900281DD10120A07100206071D3
:1053F00002A80190206800902679087E08732F4645
:105400000098FFF7A2FE6946087B0874B019C2B283
:105410000120024304AB00990198FFF72DFF694674
:10542000087A38702846FEF767FD00283FD00295BD
:10543000206804900D980A901498039015980E9F78
:10544000007869460877002001AD07AE0871044670
:1054500022E0781E84420DD108A8317801700090B6
:105460000A98039B021905A80499FFF7A8FE6A464B
:10547000107D0FE0317808AA1171012109A805916A
:1054800000900A980B46021908A80499FFF797FEA6
:1054900008AA10782870641CBC4204D22846FEF783
:1054A0002BFD0028D5D168460179029801700FB014
:1054B000F0BD016002710021417181717047F0B54A
:1054C00085B017460B9A1C46054613786A460A981B
:1054D00013720E4602A90191009003232246394619
:1054E0002846FFF722FF00216A46117303A82946C8
:1054F000FEF798F800280DD002222146B068FFF789
:105500000BFCA178884201D1002000E0032069460D
:105510000870287005B0F0BD30B5154689B0044656
:105520000A79096807A8FFF7C4FF002268460272DB
:10553000057302710379037407A904AA2046FFF7D3
:1055400025FF2046FEF7D8FC00280DD06A461179C9
:10555000117606A80090012303AA05A80799FFF772
:105560000EFE6A46107D207007A8FEF736F809B0D7
:1055700030BDFFB589B005460A981E46027901681C
:10558000129F02A8FFF795FF0020287004461DE037
:10559000701E844239786A4606A8117601D201212C
:1055A00000E0002107910091019004AB02AA05A838
:1055B0000A99FFF784FF6A46107D28706846008AC2
:1055C00062000B9940BA641C8852E4B2B442DFD343
:1055D00002A8FEF702F80DB0F0BDF0B585B0174691
:1055E0000B9A1C46054613786A460A9813720E46B3
:1055F00002A9019100900323224639462846FFF76D
:1056000094FE00216A46117303A82946FEF70AF8A2
:1056100000280DD002222146B068FFF77DFBA1785B
:10562000884201D1002000E00320694608702870FC
:1056300005B0F0BD7CB5144605460A790968684690
:10564000FFF737FF22466946284600F004F868460F
:10565000FDF7C3FF7CBD3EB5130A6C462371627132
:105660000023237202AA0092022301AAFFF769FE17
:105670003EBDFFB5144689B00E4605460A79096855
:1056800006A8FFF716FF224606A92846FFF7E3FF04
:1056900000216A46117202A82946FDF7C3FF0028BF
:1056A00029D0002424E003A808900C986100405AF7
:1056B0006946020A0A71487106AF022201A9B06860
:1056C000FFF72AFB6946887100220A7404A800903B
:1056D000032301AA39460898FFF733FE6946087B81
:1056E0002870002008752878002804D1641CA4B212
:1056F00012988442D7D306A8FDF76FFF0DB0F0BD16
:10570000FFB589B005460A981E4602790168129FC6
:1057100002A8FFF7CEFE0020287004461DE0701E90
:10572000844239786A4606A8117601D2012100E048
:10573000002107910091019004AB02AA05A80A99E3
:10574000FFF74BFF6A46107D28706846008A6200AA
:105750000B9940BA641C8852E4B2B442DFD302A869
:10576000FDF73BFF0DB0F0BD7CB50025057201468D
:10577000074C6846FFF768FB01986060009820605E
:105780000448856101690322114301617CBD000069
:105790001C00002000E000E030B5836902460124CF
:1057A0002032002B06D00025012B0DD0022B00D07B
:1057B000856130BD13787E2B18D17E2916D04368C1
:1057C0001970C461846111E07E290AD0C369084C54
:1057D000A3420AD2C46943681955C3695B1CC361FB
:1057E00004E002238361547000E08561117030BDD4
:1057F0000A0200007E2807D07D2805D0112803D09A
:10580000132801D0002070470120704710B50023F5
:105810001A4603E084182478E318521C9142F9D800
:10582000D843C0B210BD012222210A540021816157
:1058300070470000FFB5486883B02349019100908C
:1058400006990598FFF7E2FF07467E21009801249C
:105850000170002515E00598401906783046FFF7DD
:10586000C9FF002807D02020464000987D2100195C
:10587000641C0170A4B200980019641C0670A4B2E4
:105880006D1C0698A842E6D83846FFF7B3FF0028FB
:1058900007D02020474000987D210019641C01702A
:1058A000A4B200987E2200190770641C0099A0B26F
:1058B00009180A70401C80B2019000990398019A5F
:1058C00006C007B0F0BD00000A020000F0B50646B1
:1058D00004462036B0788FB00025002809D0B57076
:1058E0002046103000F0C0FF002802D02169606916
:1058F00088477078002877D0B078002874D170700D
:10590000012002460C9000200546014614E0636821
:1059100000289C465B5C15D00020312B1AD0332B1D
:1059200018D05D2B16D05E2B14D0002267467B5515
:105930006D1C002A03D0491CE3698B42E7D800287C
:105940000DD10AE07D2B03D000200028EED0F0E737
:105950000120FAE720277B40E8E7002A00D1002554
:10596000FF21681E073188424CD260686D1E2946AF
:1059700007950690FFF74AFF01466068425D914235
:1059800040D1FF3008300D90FF21079A043106986E
:10599000039202900E910D9805910490A268002A3E
:1059A0002ED002A9E0689047002829D004980599D4
:1059B00002460B460991089021460AA8FFF73AFFD4
:1059C000206800236D460B9A0A992B704569AB42FB
:1059D0000BD1416189188161006800680068016825
:1059E00080221143016004E011E0FF206946087144
:1059F00008706846FEF780FA002801D000200C905D
:105A0000002030700C98002801D00020A0610FB059
:105A1000F0BD30B587B006C0002505604560083090
:105A2000FFF740FB0446103C8560C56010300570F0
:105A300045708570214604A82568FFF719FB049876
:105A4000009005980190A86000986860214602A81F
:105A50002568FFF79FFA029800900398019028614B
:105A60000098E860206800680068006801682022EB
:105A700011430160204607B030BDF0B589B00C4637
:105A800000216A4603910646117405A80591079006
:105A900011766068012702AB032801D3012500E0DD
:105AA0000025002D21D02268C01E9578854201D1A5
:105AB000012500E00025002D17D010786A461072ED
:105AC00020684078507222689078002805D0D21C57
:105AD000009269460871052204E068460091017150
:105AE00005226946181DFBF7C1FB002D2ED0B068BA
:105AF00000282BD06846007A3179814226D1A168EE
:105B0000207B091D00916B46001F18710522694614
:105B10000798FBF7ABFBB26802A9F0689047410613
:105B200002D000216A4611766A46A168127A0A708C
:105B30006A46A168527A4A70A1686A468870A0686D
:105B4000117EC170107E001DE06000E00027384625
:105B500009B0F0BDF8B50C688D880021231D666979
:105B600009E0CF00FF18BF8AAF4203D1C900C918AE
:105B7000143103E0491C8E42F3D80021002906D0DD
:105B80004B8855689D4204D207210170F8BD082159
:105B9000FBE7536000934D6813682A46216808327A
:105BA000FFF784FAF8BD10B513468A88096800F03B
:105BB00007F910BDF0B5DC1DE608CD688C68F6006D
:105BC000641B0836B44201D207212CE000240D6981
:105BD00010E0E7007F18BF8A97420AD1E20052180E
:105BE000D382CC680B681B199361CA689219CA608A
:105BF00018E0641CA542ECD8022DE5D2EC00641834
:105C0000A2820A69D2005218D382CB680A68D218DD
:105C10000B69DB005B189A61CA689219CA600A694D
:105C2000521C0A6100210170F0BD10B50446884283
:105C30000FD008682060486860608868A060C86805
:105C4000E060086920612046143010221431FBF70F
:105C50000DFB204610BD0FB4F0B585B00E460E9D6D
:105C600009681F4604460C9A0095FDF7A5FD2046DD
